{
  "_format": "hh-sol-artifact-1",
  "contractName": "Counter",
  "sourceName": "contracts/Counter.sol",
  "abi": [
    {
      "inputs": [],
      "name": "count",
      "outputs": [
        {
          "internalType": "uint256",
          "name": "",
          "type": "uint256"
        }
      ],
      "stateMutability": "view",
      "type": "function"
    },
    {
      "inputs": [],
      "name": "dec",
      "outputs": [],
      "stateMutability": "nonpayable",
      "type": "function"
    },
    {
      "inputs": [],
      "name": "get",
      "outputs": [
        {
          "internalType": "uint256",
          "name": "",
          "type": "uint256"
        }
      ],
      "stateMutability": "view",
      "type": "function"
    },
    {
      "inputs": [],
      "name": "inc",
      "outputs": [],
      "stateMutability": "nonpayable",
      "type": "function"
    },
    {
      "inputs": [],
      "name": "reset",
      "outputs": [],
      "stateMutability": "nonpayable",
      "type": "function"
    }
  ],
  "bytecode": "0x6080604052348015600f57600080fd5b506102ec8061001f6000396000f3fe608060405234801561001057600080fd5b50600436106100575760003560e01c806306661abd1461005c578063371303c01461007a5780636d4ce63c14610084578063b3bcfa82146100a2578063d826f88f146100ac575b600080fd5b6100646100b6565b6040516100719190610161565b60405180910390f35b6100826100bc565b005b61008c6100d7565b6040516100999190610161565b60405180910390f35b6100aa6100e0565b005b6100b461013f565b005b60005481565b60016000808282546100ce91906101ab565b92505081905550565b60008054905090565b6000805411610124576040517f08c379a000000000000000000000000000000000000000000000000000000000815260040161011b90610262565b60405180910390fd5b60016000808282546101369190610282565b92505081905550565b60008081905550565b6000819050919050565b61015b81610148565b82525050565b60006020820190506101766000830184610152565b92915050565b7f4e487b7100000000000000000000000000000000000000000000000000000000600052601160045260246000fd5b60006101b682610148565b91506101c183610148565b92508282019050808211156101d9576101d861017c565b5b92915050565b600082825260208201905092915050565b7f436f756e7465723a2063616e6e6f742064656372656d656e742062656c6f772060008201527f7a65726f00000000000000000000000000000000000000000000000000000000602082015250565b600061024c6024836101df565b9150610257826101f0565b604082019050919050565b6000602082019050818103600083015261027b8161023f565b9050919050565b600061028d82610148565b915061029883610148565b92508282039050818111156102b0576102af61017c565b5b9291505056fea2646970667358221220debf89a383fa2a615215b341775508683d9bb7d7ee77691fb7d485eed1b30c4964736f6c634300081c0033",
  "linkReferences": {},
  "deployedLinkReferences": {}
}